{
  "_format": "hh-sol-artifact-1",
  "contractName": "ProductFactory",
  "sourceName": "contracts/factory/product-factory/ProductFactory.sol",
  "abi": [
    {
      "anonymous": false,
      "inputs": [
        {
          "indexed": false,
          "internalType": "address",
          "name": "previousAdmin",
          "type": "address"
        },
        {
          "indexed": false,
          "internalType": "address",
          "name": "newAdmin",
          "type": "address"
        }
      ],
      "name": "AdminChanged",
      "type": "event"
    },
    {
      "anonymous": false,
      "inputs": [
        {
          "indexed": true,
          "internalType": "address",
          "name": "beacon",
          "type": "address"
        }
      ],
      "name": "BeaconUpgraded",
      "type": "event"
    },
    {
      "anonymous": false,
      "inputs": [
        {
          "indexed": true,
          "internalType": "address",
          "name": "proxy",
          "type": "address"
        },
        {
          "indexed": false,
          "internalType": "address",
          "name": "paymentToken",
          "type": "address"
        },
        {
          "indexed": false,
          "internalType": "uint256",
          "name": "price",
          "type": "uint256"
        },
        {
          "indexed": false,
          "internalType": "uint256",
          "name": "cashback",
          "type": "uint256"
        }
      ],
      "name": "Deployed",
      "type": "event"
    },
    {
      "anonymous": false,
      "inputs": [
        {
          "indexed": false,
          "internalType": "bytes32",
          "name": "productAlias",
          "type": "bytes32"
        },
        {
          "indexed": false,
          "internalType": "address",
          "name": "implementation",
          "type": "address"
        }
      ],
      "name": "ImplementationChanged",
      "type": "event"
    },
    {
      "anonymous": false,
      "inputs": [
        {
          "indexed": false,
          "internalType": "uint8",
          "name": "version",
          "type": "uint8"
        }
      ],
      "name": "Initialized",
      "type": "event"
    },
    {
      "anonymous": false,
      "inputs": [
        {
          "indexed": true,
          "internalType": "address",
          "name": "previousOwner",
          "type": "address"
        },
        {
          "indexed": true,
          "internalType": "address",
          "name": "newOwner",
          "type": "address"
        }
      ],
      "name": "OwnershipTransferred",
      "type": "event"
    },
    {
      "anonymous": false,
      "inputs": [
        {
          "indexed": false,
          "internalType": "address",
          "name": "payment",
          "type": "address"
        }
      ],
      "name": "PaymentChanged",
      "type": "event"
    },
    {
      "anonymous": false,
      "inputs": [
        {
          "indexed": false,
          "internalType": "bytes32",
          "name": "productAlias",
          "type": "bytes32"
        },
        {
          "indexed": false,
          "internalType": "uint256",
          "name": "decreasePercent",
          "type": "uint256"
        },
        {
          "indexed": false,
          "internalType": "uint256",
          "name": "cashbackPercent",
          "type": "uint256"
        }
      ],
      "name": "PercentsChanged",
      "type": "event"
    },
    {
      "anonymous": false,
      "inputs": [
        {
          "indexed": false,
          "internalType": "bytes32",
          "name": "productAlias",
          "type": "bytes32"
        },
        {
          "indexed": false,
          "internalType": "uint256",
          "name": "currentPrice",
          "type": "uint256"
        },
        {
          "indexed": false,
          "internalType": "uint256",
          "name": "minPrice",
          "type": "uint256"
        }
      ],
      "name": "PricesChanged",
      "type": "event"
    },
    {
      "anonymous": false,
      "inputs": [
        {
          "indexed": false,
          "internalType": "bytes32",
          "name": "productAlias",
          "type": "bytes32"
        }
      ],
      "name": "ProductAdded",
      "type": "event"
    },
    {
      "anonymous": false,
      "inputs": [
        {
          "indexed": false,
          "internalType": "bytes32",
          "name": "productAlias",
          "type": "bytes32"
        },
        {
          "indexed": false,
          "internalType": "bool",
          "name": "status",
          "type": "bool"
        }
      ],
      "name": "StatusChanged",
      "type": "event"
    },
    {
      "anonymous": false,
      "inputs": [
        {
          "indexed": true,
          "internalType": "address",
          "name": "implementation",
          "type": "address"
        }
      ],
      "name": "Upgraded",
      "type": "event"
    },
    {
      "inputs": [],
      "name": "ProductFactory_init",
      "outputs": [],
      "stateMutability": "nonpayable",
      "type": "function"
    },
    {
      "inputs": [],
      "name": "__ProductFactoryConfig_init",
      "outputs": [],
      "stateMutability": "nonpayable",
      "type": "function"
    },
    {
      "inputs": [
        {
          "internalType": "bytes32",
          "name": "alias_",
          "type": "bytes32"
        }
      ],
      "name": "addProduct",
      "outputs": [],
      "stateMutability": "nonpayable",
      "type": "function"
    },
    {
      "inputs": [
        {
          "internalType": "bytes32",
          "name": "alias_",
          "type": "bytes32"
        },
        {
          "internalType": "address",
          "name": "paymentToken_",
          "type": "address"
        },
        {
          "internalType": "bytes",
          "name": "initializeData_",
          "type": "bytes"
        }
      ],
      "name": "deploy",
      "outputs": [
        {
          "internalType": "address",
          "name": "",
          "type": "address"
        }
      ],
      "stateMutability": "nonpayable",
      "type": "function"
    },
    {
      "inputs": [
        {
          "internalType": "bytes32",
          "name": "alias_",
          "type": "bytes32"
        }
      ],
      "name": "getCashback",
      "outputs": [
        {
          "internalType": "uint256",
          "name": "",
          "type": "uint256"
        }
      ],
      "stateMutability": "view",
      "type": "function"
    },
    {
      "inputs": [
        {
          "internalType": "bytes32",
          "name": "alias_",
          "type": "bytes32"
        }
      ],
      "name": "getNewPrice",
      "outputs": [
        {
          "internalType": "uint256",
          "name": "",
          "type": "uint256"
        }
      ],
      "stateMutability": "view",
      "type": "function"
    },
    {
      "inputs": [
        {
          "internalType": "bytes32",
          "name": "alias_",
          "type": "bytes32"
        },
        {
          "internalType": "bytes",
          "name": "initializeData_",
          "type": "bytes"
        }
      ],
      "name": "getPotentialContractAddress",
      "outputs": [
        {
          "internalType": "address",
          "name": "",
          "type": "address"
        }
      ],
      "stateMutability": "view",
      "type": "function"
    },
    {
      "inputs": [],
      "name": "getProducts",
      "outputs": [
        {
          "internalType": "bytes32[]",
          "name": "",
          "type": "bytes32[]"
        }
      ],
      "stateMutability": "view",
      "type": "function"
    },
    {
      "inputs": [],
      "name": "owner",
      "outputs": [
        {
          "internalType": "address",
          "name": "",
          "type": "address"
        }
      ],
      "stateMutability": "view",
      "type": "function"
    },
    {
      "inputs": [],
      "name": "payment",
      "outputs": [
        {
          "internalType": "address",
          "name": "",
          "type": "address"
        }
      ],
      "stateMutability": "view",
      "type": "function"
    },
    {
      "inputs": [
        {
          "internalType": "bytes32",
          "name": "",
          "type": "bytes32"
        }
      ],
      "name": "products",
      "outputs": [
        {
          "internalType": "uint256",
          "name": "currentPrice",
          "type": "uint256"
        },
        {
          "internalType": "uint256",
          "name": "minPrice",
          "type": "uint256"
        },
        {
          "internalType": "uint128",
          "name": "decreasePercent",
          "type": "uint128"
        },
        {
          "internalType": "uint128",
          "name": "cashbackPercent",
          "type": "uint128"
        },
        {
          "internalType": "uint64",
          "name": "salesCount",
          "type": "uint64"
        },
        {
          "internalType": "bool",
          "name": "isActive",
          "type": "bool"
        },
        {
          "internalType": "address",
          "name": "implementation",
          "type": "address"
        }
      ],
      "stateMutability": "view",
      "type": "function"
    },
    {
      "inputs": [],
      "name": "proxiableUUID",
      "outputs": [
        {
          "internalType": "bytes32",
          "name": "",
          "type": "bytes32"
        }
      ],
      "stateMutability": "view",
      "type": "function"
    },
    {
      "inputs": [],
      "name": "renounceOwnership",
      "outputs": [],
      "stateMutability": "nonpayable",
      "type": "function"
    },
    {
      "inputs": [
        {
          "internalType": "bytes32",
          "name": "alias_",
          "type": "bytes32"
        },
        {
          "internalType": "address",
          "name": "implementation_",
          "type": "address"
        }
      ],
      "name": "setImplementation",
      "outputs": [],
      "stateMutability": "nonpayable",
      "type": "function"
    },
    {
      "inputs": [
        {
          "internalType": "address",
          "name": "payment_",
          "type": "address"
        }
      ],
      "name": "setPayment",
      "outputs": [],
      "stateMutability": "nonpayable",
      "type": "function"
    },
    {
      "inputs": [
        {
          "internalType": "bytes32",
          "name": "alias_",
          "type": "bytes32"
        },
        {
          "internalType": "uint128",
          "name": "decreasePercent_",
          "type": "uint128"
        },
        {
          "internalType": "uint128",
          "name": "cashbackPercent_",
          "type": "uint128"
        }
      ],
      "name": "setPercents",
      "outputs": [],
      "stateMutability": "nonpayable",
      "type": "function"
    },
    {
      "inputs": [
        {
          "internalType": "bytes32",
          "name": "alias_",
          "type": "bytes32"
        },
        {
          "internalType": "uint256",
          "name": "currentPrice_",
          "type": "uint256"
        },
        {
          "internalType": "uint256",
          "name": "minPrice_",
          "type": "uint256"
        }
      ],
      "name": "setPrices",
      "outputs": [],
      "stateMutability": "nonpayable",
      "type": "function"
    },
    {
      "inputs": [
        {
          "internalType": "bytes32",
          "name": "alias_",
          "type": "bytes32"
        },
        {
          "internalType": "bool",
          "name": "isActive_",
          "type": "bool"
        }
      ],
      "name": "setStatus",
      "outputs": [],
      "stateMutability": "nonpayable",
      "type": "function"
    },
    {
      "inputs": [
        {
          "internalType": "address",
          "name": "newOwner",
          "type": "address"
        }
      ],
      "name": "transferOwnership",
      "outputs": [],
      "stateMutability": "nonpayable",
      "type": "function"
    },
    {
      "inputs": [
        {
          "internalType": "address",
          "name": "newImplementation",
          "type": "address"
        }
      ],
      "name": "upgradeTo",
      "outputs": [],
      "stateMutability": "nonpayable",
      "type": "function"
    },
    {
      "inputs": [
        {
          "internalType": "address",
          "name": "newImplementation",
          "type": "address"
        },
        {
          "internalType": "bytes",
          "name": "data",
          "type": "bytes"
        }
      ],
      "name": "upgradeToAndCall",
      "outputs": [],
      "stateMutability": "payable",
      "type": "function"
    }
  ],
  "bytecode": "0x60a06040523060805234801561001457600080fd5b506080516121f861004c60003960008181610886015281816108c901528181610a8501528181610ac80152610b6401526121f86000f3fe608060405260043610620001435760003560e01c80637dc648eb11620000b95780639ab06fcb11620000785780639ab06fcb146200040b578063a3adc4d01462000430578063c29b2f201462000455578063d8255787146200047c578063e4e1341c14620004a1578063f2fde38b14620004c657600080fd5b80637dc648eb146200035757806384efd1cd146200037c5780638844addb14620003a15780638ca082e614620003c65780638da5cb5b14620003eb57600080fd5b806346db753c116200010657806346db753c14620002105780634f1ef286146200022857806352d1902d146200023f578063715018a6146200026657806379054391146200027e57600080fd5b80632006349714620001485780632781212e14620001625780633659cfe614620001a457806342f6487a14620001c95780634640e9f214620001eb575b600080fd5b3480156200015557600080fd5b5062000160620004eb565b005b3480156200016f57600080fd5b506200018762000181366004620019cb565b6200060a565b6040516001600160a01b0390911681526020015b60405180910390f35b348015620001b157600080fd5b5062000160620001c336600462001a28565b6200087b565b348015620001d657600080fd5b5060c95462000187906001600160a01b031681565b348015620001f857600080fd5b50620001606200020a36600462001a46565b62000964565b3480156200021d57600080fd5b506200016062000a44565b620001606200023936600462001a75565b62000a7a565b3480156200024c57600080fd5b506200025762000b57565b6040519081526020016200019b565b3480156200027357600080fd5b506200016062000c0d565b3480156200028b57600080fd5b50620003006200029d36600462001ac9565b60ca602052600090815260409020805460018201546002830154600390930154919290916001600160801b0380831692600160801b9004169067ffffffffffffffff811690600160401b810460ff1690600160481b90046001600160a01b031687565b6040805197885260208801969096526001600160801b039485169587019590955292909116606085015267ffffffffffffffff166080840152151560a08301526001600160a01b031660c082015260e0016200019b565b3480156200036457600080fd5b50620001876200037636600462001ae3565b62000c23565b3480156200038957600080fd5b50620002576200039b36600462001ac9565b62000ccb565b348015620003ae57600080fd5b5062000257620003c036600462001ac9565b62000cfc565b348015620003d357600080fd5b5062000160620003e536600462001ac9565b62000d2f565b348015620003f857600080fd5b506033546001600160a01b031662000187565b3480156200041857600080fd5b50620001606200042a36600462001a28565b62000d78565b3480156200043d57600080fd5b50620001606200044f36600462001b16565b62000dd1565b3480156200046257600080fd5b506200046d62000e4e565b6040516200019b919062001b4d565b3480156200048957600080fd5b50620001606200049b36600462001b93565b62000e61565b348015620004ae57600080fd5b5062000160620004c036600462001bd8565b62000f15565b348015620004d357600080fd5b5062000160620004e536600462001a28565b62001056565b600054610100900460ff16158080156200050c5750600054600160ff909116105b80620005285750303b15801562000528575060005460ff166001145b620005915760405162461bcd60e51b815260206004820152602e60248201527f496e697469616c697a61626c653a20636f6e747261637420697320616c72656160448201526d191e481a5b9a5d1a585b1a5e995960921b60648201526084015b60405180910390fd5b6000805460ff191660011790558015620005b5576000805461ff0019166101001790555b620005bf62000a44565b801562000607576000805461ff0019169055604051600181527f7f26b83ff96e1f2b6a682f133852f6798a09c465da95921460cefb3847402498906020015b60405180910390a15b50565b6000806200061885620010d2565b6003810154909150600160401b900460ff166200066f5760405162461bcd60e51b815260206004820152601460248201527315118e881a5b9858dd1a5d99481c1c9bd91d58dd60621b604482015260640162000588565b8054600282015460009062000696908390600160801b90046001600160801b031662001154565b60c95460405163dd9a76ff60e01b81526001600160a01b038981166004830152336024830152604482018690526064820184905292935091169063dd9a76ff90608401600060405180830381600087803b158015620006f457600080fd5b505af115801562000709573d6000803e3d6000fd5b5050505060006200074762000736878660030160099054906101000a90046001600160a01b031662001184565b620007418a620011fe565b62001229565b60405163f2fde38b60e01b81523360048201529091506001600160a01b0382169063f2fde38b90602401600060405180830381600087803b1580156200078c57600080fd5b505af1158015620007a1573d6000803e3d6000fd5b5050505060018401546002850154620007c59185916001600160801b03166200123b565b845560038401805467ffffffffffffffff16906000620007e58362001c2f565b91906101000a81548167ffffffffffffffff021916908367ffffffffffffffff16021790555050806001600160a01b03167f863dd289402cf71b29dea8b439af18e7a86b4b02d6ef3c22b7dd04c7c11c1b3788858560405162000866939291906001600160a01b039390931683526020830191909152604082015260600190565b60405180910390a293505050505b9392505050565b306001600160a01b037f0000000000000000000000000000000000000000000000000000000000000000161415620008c75760405162461bcd60e51b8152600401620005889062001c5a565b7f00000000000000000000000000000000000000000000000000000000000000006001600160a01b0316620009126000805160206200217c833981519152546001600160a01b031690565b6001600160a01b0316146200093b5760405162461bcd60e51b8152600401620005889062001ca6565b62000946816200128b565b60408051600080825260208201909252620006079183919062001295565b6200096e62001422565b6200097b60cb836200147e565b620009ba5760405162461bcd60e51b815260206004820152600e60248201526d151190ce881b9bdd08199bdd5b9960921b604482015260640162000588565b600082815260ca602090815260409182902060030180547fffffff0000000000000000000000000000000000000000ffffffffffffffffff16600160481b6001600160a01b038616908102919091179091558251858152918201527f25fca87dea5d9d73441662cbee919077d9e45ce9c7e302f11ec942d6d3bd9e2c910160405180910390a15050565b600054610100900460ff1662000a6e5760405162461bcd60e51b8152600401620005889062001cf2565b62000a7862001497565b565b306001600160a01b037f000000000000000000000000000000000000000000000000000000000000000016141562000ac65760405162461bcd60e51b8152600401620005889062001c5a565b7f00000000000000000000000000000000000000000000000000000000000000006001600160a01b031662000b116000805160206200217c833981519152546001600160a01b031690565b6001600160a01b03161462000b3a5760405162461bcd60e51b8152600401620005889062001ca6565b62000b45826200128b565b62000b538282600162001295565b5050565b6000306001600160a01b037f0000000000000000000000000000000000000000000000000000000000000000161462000bf95760405162461bcd60e51b815260206004820152603860248201527f555550535570677261646561626c653a206d757374206e6f742062652063616c60448201527f6c6564207468726f7567682064656c656761746563616c6c0000000000000000606482015260840162000588565b506000805160206200217c83398151915290565b62000c1762001422565b62000a786000620014df565b60008062000c3184620010d2565b905062000cc162000c5a848360030160099054906101000a90046001600160a01b031662001184565b62000c6586620011fe565b8151602092830120604080516001600160f81b0319818601523060601b6bffffffffffffffffffffffff191660218201526035810193909352605580840192909252805180840390920182526075909201909152805191012090565b9150505b92915050565b60008062000cd983620010d2565b80546001820154600283015492935062000874926001600160801b03166200123b565b60008062000d0a83620010d2565b805460028201549192506200087491600160801b90046001600160801b031662001154565b62000d3962001422565b62000d4660cb8262001531565b506040518181527f6c2de183f2a2faf4876f357e3c75bf6e6e7aa4dd120e8b5e1bdb2901e085f69c90602001620005fe565b62000d8262001422565b60c980546001600160a01b0319166001600160a01b0383169081179091556040519081527fc991d12e1bf4601b4b112d5cc3d5b4a407956b76b6acd269408386564a01aafe90602001620005fe565b62000ddb62001422565b600062000de883620010d2565b60038101805468ff00000000000000001916600160401b851515908102919091179091556040805186815260208101929092529192507f405ed44f9be1eeedc4942282cde4b513f2572fb29e94f0df8a299fd05efef875910160405180910390a1505050565b606062000e5c60cb6200153f565b905090565b62000e6b62001422565b8082101562000eb35760405162461bcd60e51b81526020600482015260136024820152725446433a20696e76616c69642070726963657360681b604482015260640162000588565b600062000ec084620010d2565b8381556001810183905560408051868152602081018690529081018490529091507f7b91ca1689a1cd9cd7899d1bfc8cf2a3a690eec993b427777be86abb88ad007b906060015b60405180910390a150505050565b62000f1f62001422565b600062000f2c84620010d2565b90506b033b2e3c9fd0803ce8000000836001600160801b0316111562000f955760405162461bcd60e51b815260206004820152601d60248201527f5446433a20696e76616c69642064656372656173652070657263656e74000000604482015260640162000588565b6b033b2e3c9fd0803ce8000000826001600160801b0316111562000ffc5760405162461bcd60e51b815260206004820152601d60248201527f5446433a20696e76616c696420636173686261636b2070657263656e74000000604482015260640162000588565b6001600160801b03828116600160801b810291851691821760028401556040805187815260208101939093528201527f864ee003808b39b6e63e056a06a91ab718f1b0f0e96f8808cb97ef65ea2fb8e19060600162000f07565b6200106062001422565b6001600160a01b038116620010c75760405162461bcd60e51b815260206004820152602660248201527f4f776e61626c653a206e6577206f776e657220697320746865207a65726f206160448201526564647265737360d01b606482015260840162000588565b6200060781620014df565b600081815260ca6020526040812060030154600160481b90046001600160a01b0316620011425760405162461bcd60e51b815260206004820152601d60248201527f5446433a20696d706c656d656e746174696f6e206e6f7420666f756e64000000604482015260640162000588565b50600090815260ca6020526040902090565b60006b033b2e3c9fd0803ce8000000620011786001600160801b0384168562001d3d565b62000874919062001d5f565b60606000604051806020016200119a90620018f5565b6020820181038252601f19601f820116604052509050808484604051602001620011c692919062001ddf565b60408051601f1981840301815290829052620011e6929160200162001e0b565b60405160208183030381529060405291505092915050565b6000806200120c83620010d2565b6003015467ffffffffffffffff1633939093019290920192915050565b60008183516020850134f59392505050565b6000620012836b033b2e3c9fd0803ce8000000620012636001600160801b0385168762001d3d565b6200126f919062001d5f565b6200127b908662001e3e565b84906200154c565b949350505050565b6200060762001422565b7f4910fdfa16fed3260ed0e7147f7cc6da11a60208b5b9406d12a635614ffd91435460ff1615620012d057620012cb8362001565565b505050565b826001600160a01b03166352d1902d6040518163ffffffff1660e01b815260040160206040518083038186803b1580156200130a57600080fd5b505afa9250505080156200133d575060408051601f3d908101601f191682019092526200133a9181019062001e58565b60015b620013a25760405162461bcd60e51b815260206004820152602e60248201527f45524331393637557067726164653a206e657720696d706c656d656e7461746960448201526d6f6e206973206e6f74205555505360901b606482015260840162000588565b6000805160206200217c8339815191528114620014145760405162461bcd60e51b815260206004820152602960248201527f45524331393637557067726164653a20756e737570706f727465642070726f786044820152681a58589b195555525160ba1b606482015260840162000588565b50620012cb83838362001604565b6033546001600160a01b0316331462000a785760405162461bcd60e51b815260206004820181905260248201527f4f776e61626c653a2063616c6c6572206973206e6f7420746865206f776e6572604482015260640162000588565b6000818152600183016020526040812054151562000874565b600054610100900460ff16620014c15760405162461bcd60e51b8152600401620005889062001cf2565b620014cb62001635565b620014d562001635565b62000a786200165f565b603380546001600160a01b038381166001600160a01b0319831681179093556040519116919082907f8be0079c531659141344cd1fd0a4f28419497f9722a3daafe3b4186f6b6457e090600090a35050565b600062000874838362001693565b606062000cc582620016e5565b6000818310156200155e578162000874565b5090919050565b6001600160a01b0381163b620015d45760405162461bcd60e51b815260206004820152602d60248201527f455243313936373a206e657720696d706c656d656e746174696f6e206973206e60448201526c1bdd08184818dbdb9d1c9858dd609a1b606482015260840162000588565b6000805160206200217c83398151915280546001600160a01b0319166001600160a01b0392909216919091179055565b6200160f8362001743565b6000825111806200161d5750805b15620012cb576200162f838362001785565b50505050565b600054610100900460ff1662000a785760405162461bcd60e51b8152600401620005889062001cf2565b600054610100900460ff16620016895760405162461bcd60e51b8152600401620005889062001cf2565b62000a7862001882565b6000818152600183016020526040812054620016dc5750815460018181018455600084815260208082209093018490558454848252828601909352604090209190915562000cc5565b50600062000cc5565b6060816000018054806020026020016040519081016040528092919081815260200182805480156200173757602002820191906000526020600020905b81548152602001906001019080831162001722575b50505050509050919050565b6200174e8162001565565b6040516001600160a01b038216907fbc7cd75a20ee27fd9adebab32041f755214dbc6bffa90cc0225b39da2e5c2d3b90600090a250565b60606001600160a01b0383163b620017ef5760405162461bcd60e51b815260206004820152602660248201527f416464726573733a2064656c65676174652063616c6c20746f206e6f6e2d636f6044820152651b9d1c9858dd60d21b606482015260840162000588565b600080846001600160a01b0316846040516200180c919062001e72565b600060405180830381855af49150503d806000811462001849576040519150601f19603f3d011682016040523d82523d6000602084013e6200184e565b606091505b50915091506200187982826040518060600160405280602781526020016200219c60279139620018b7565b95945050505050565b600054610100900460ff16620018ac5760405162461bcd60e51b8152600401620005889062001cf2565b62000a7833620014df565b60608315620018c857508162000874565b825115620018d95782518084602001fd5b8160405162461bcd60e51b815260040162000588919062001e90565b6102d68062001ea683390190565b80356001600160a01b03811681146200191b57600080fd5b919050565b634e487b7160e01b600052604160045260246000fd5b600082601f8301126200194857600080fd5b813567ffffffffffffffff8082111562001966576200196662001920565b604051601f8301601f19908116603f0116810190828211818310171562001991576200199162001920565b81604052838152866020858801011115620019ab57600080fd5b836020870160208301376000602085830101528094505050505092915050565b600080600060608486031215620019e157600080fd5b83359250620019f36020850162001903565b9150604084013567ffffffffffffffff81111562001a1057600080fd5b62001a1e8682870162001936565b9150509250925092565b60006020828403121562001a3b57600080fd5b620008748262001903565b6000806040838503121562001a5a57600080fd5b8235915062001a6c6020840162001903565b90509250929050565b6000806040838503121562001a8957600080fd5b62001a948362001903565b9150602083013567ffffffffffffffff81111562001ab157600080fd5b62001abf8582860162001936565b9150509250929050565b60006020828403121562001adc57600080fd5b5035919050565b6000806040838503121562001af757600080fd5b82359150602083013567ffffffffffffffff81111562001ab157600080fd5b6000806040838503121562001b2a57600080fd5b823591506020830135801515811462001b4257600080fd5b809150509250929050565b6020808252825182820181905260009190848201906040850190845b8181101562001b875783518352928401929184019160010162001b69565b50909695505050505050565b60008060006060848603121562001ba957600080fd5b505081359360208301359350604090920135919050565b80356001600160801b03811681146200191b57600080fd5b60008060006060848603121562001bee57600080fd5b8335925062001c006020850162001bc0565b915062001c106040850162001bc0565b90509250925092565b634e487b7160e01b600052601160045260246000fd5b600067ffffffffffffffff8083168181141562001c505762001c5062001c19565b6001019392505050565b6020808252602c908201527f46756e6374696f6e206d7573742062652063616c6c6564207468726f7567682060408201526b19195b1959d85d1958d85b1b60a21b606082015260800190565b6020808252602c908201527f46756e6374696f6e206d7573742062652063616c6c6564207468726f7567682060408201526b6163746976652070726f787960a01b606082015260800190565b6020808252602b908201527f496e697469616c697a61626c653a20636f6e7472616374206973206e6f74206960408201526a6e697469616c697a696e6760a81b606082015260800190565b600081600019048311821515161562001d5a5762001d5a62001c19565b500290565b60008262001d7d57634e487b7160e01b600052601260045260246000fd5b500490565b60005b8381101562001d9f57818101518382015260200162001d85565b838111156200162f5750506000910152565b6000815180845262001dcb81602086016020860162001d82565b601f01601f19169290920160200192915050565b60408152600062001df4604083018562001db1565b905060018060a01b03831660208301529392505050565b6000835162001e1f81846020880162001d82565b83519083019062001e3581836020880162001d82565b01949350505050565b60008282101562001e535762001e5362001c19565b500390565b60006020828403121562001e6b57600080fd5b5051919050565b6000825162001e8681846020870162001d82565b9190910192915050565b60208152600062000874602083018462001db156fe608060405234801561001057600080fd5b506040516102d63803806102d683398101604081905261002f9161016b565b807f360894a13ba1a3210667c828492db98dca3e2076cc3735a920a3ca505d382bbc556000816001600160a01b03168360405161006c919061022a565b600060405180830381855af49150503d80600081146100a7576040519150601f19603f3d011682016040523d82523d6000602084013e6100ac565b606091505b50509050806101015760405162461bcd60e51b815260206004820152601a60248201527f50726f78793a20696e697469616c697a696e67206661696c6564000000000000604482015260640160405180910390fd5b505050610246565b634e487b7160e01b600052604160045260246000fd5b60005b8381101561013a578181015183820152602001610122565b83811115610149576000848401525b50505050565b80516001600160a01b038116811461016657600080fd5b919050565b6000806040838503121561017e57600080fd5b82516001600160401b038082111561019557600080fd5b818501915085601f8301126101a957600080fd5b8151818111156101bb576101bb610109565b604051601f8201601f19908116603f011681019083821181831017156101e3576101e3610109565b816040528281528860208487010111156101fc57600080fd5b61020d83602083016020880161011f565b80965050505050506102216020840161014f565b90509250929050565b6000825161023c81846020870161011f565b9190910192915050565b6082806102546000396000f3fe60806040527f360894a13ba1a3210667c828492db98dca3e2076cc3735a920a3ca505d382bbc543660008037600080366000845af490503d806000803e818015604757816000f35b816000fdfea2646970667358221220a28a23fc9b6648bb1381689f8f509f1461443e3499a148b8dd23e1be2792d8a164736f6c63430008090033360894a13ba1a3210667c828492db98dca3e2076cc3735a920a3ca505d382bbc416464726573733a206c6f772d6c6576656c2064656c65676174652063616c6c206661696c6564a2646970667358221220f020a84c4283ede5d36d9dae59e4b74451cb7f430042cea5465188b8ee9690ca64736f6c63430008090033",
  "linkReferences": {},
  "deployedLinkReferences": {}
}